{
  "_format": "hh-sol-artifact-1",
  "contractName": "MyEpicGame",
  "sourceName": "contracts/MyEpicGame.sol",
  "abi": [
    {
      "inputs": [
        {
          "internalType": "string[]",
          "name": "characterNames",
          "type": "string[]"
        },
        {
          "internalType": "string[]",
          "name": "characterImageURIs",
          "type": "string[]"
        },
        {
          "internalType": "uint256[]",
          "name": "characterHp",
          "type": "uint256[]"
        },
        {
          "internalType": "uint256[]",
          "name": "characterAttackDmg",
          "type": "uint256[]"
        },
        {
          "internalType": "string",
          "name": "bossName",
          "type": "string"
        },
        {
          "internalType": "string",
          "name": "bossImageURI",
          "type": "string"
        },
        {
          "internalType": "uint256",
          "name": "bossHp",
          "type": "uint256"
        },
        {
          "internalType": "uint256",
          "name": "bossAttackDmg",
          "type": "uint256"
        }
      ],
      "stateMutability": "nonpayable",
      "type": "constructor"
    },
    {
      "anonymous": false,
      "inputs": [
        {
          "indexed": true,
          "internalType": "address",
          "name": "owner",
          "type": "address"
        },
        {
          "indexed": true,
          "internalType": "address",
          "name": "approved",
          "type": "address"
        },
        {
          "indexed": true,
          "internalType": "uint256",
          "name": "tokenId",
          "type": "uint256"
        }
      ],
      "name": "Approval",
      "type": "event"
    },
    {
      "anonymous": false,
      "inputs": [
        {
          "indexed": true,
          "internalType": "address",
          "name": "owner",
          "type": "address"
        },
        {
          "indexed": true,
          "internalType": "address",
          "name": "operator",
          "type": "address"
        },
        {
          "indexed": false,
          "internalType": "bool",
          "name": "approved",
          "type": "bool"
        }
      ],
      "name": "ApprovalForAll",
      "type": "event"
    },
    {
      "anonymous": false,
      "inputs": [
        {
          "indexed": false,
          "internalType": "uint256",
          "name": "newBossHp",
          "type": "uint256"
        },
        {
          "indexed": false,
          "internalType": "uint256",
          "name": "newPlayerHp",
          "type": "uint256"
        }
      ],
      "name": "AttackComplete",
      "type": "event"
    },
    {
      "anonymous": false,
      "inputs": [
        {
          "indexed": false,
          "internalType": "address",
          "name": "sender",
          "type": "address"
        },
        {
          "indexed": false,
          "internalType": "uint256",
          "name": "tokenId",
          "type": "uint256"
        },
        {
          "indexed": false,
          "internalType": "uint256",
          "name": "characterIndex",
          "type": "uint256"
        }
      ],
      "name": "CharacterNFTMinted",
      "type": "event"
    },
    {
      "anonymous": false,
      "inputs": [
        {
          "indexed": true,
          "internalType": "address",
          "name": "from",
          "type": "address"
        },
        {
          "indexed": true,
          "internalType": "address",
          "name": "to",
          "type": "address"
        },
        {
          "indexed": true,
          "internalType": "uint256",
          "name": "tokenId",
          "type": "uint256"
        }
      ],
      "name": "Transfer",
      "type": "event"
    },
    {
      "inputs": [
        {
          "internalType": "address",
          "name": "to",
          "type": "address"
        },
        {
          "internalType": "uint256",
          "name": "tokenId",
          "type": "uint256"
        }
      ],
      "name": "approve",
      "outputs": [],
      "stateMutability": "nonpayable",
      "type": "function"
    },
    {
      "inputs": [],
      "name": "attackBoss",
      "outputs": [],
      "stateMutability": "nonpayable",
      "type": "function"
    },
    {
      "inputs": [
        {
          "internalType": "address",
          "name": "owner",
          "type": "address"
        }
      ],
      "name": "balanceOf",
      "outputs": [
        {
          "internalType": "uint256",
          "name": "",
          "type": "uint256"
        }
      ],
      "stateMutability": "view",
      "type": "function"
    },
    {
      "inputs": [],
      "name": "checkIfUserHasNFT",
      "outputs": [
        {
          "components": [
            {
              "internalType": "uint256",
              "name": "characterIndex",
              "type": "uint256"
            },
            {
              "internalType": "string",
              "name": "name",
              "type": "string"
            },
            {
              "internalType": "string",
              "name": "imageURI",
              "type": "string"
            },
            {
              "internalType": "uint256",
              "name": "hp",
              "type": "uint256"
            },
            {
              "internalType": "uint256",
              "name": "maxHp",
              "type": "uint256"
            },
            {
              "internalType": "uint256",
              "name": "attackDamage",
              "type": "uint256"
            }
          ],
          "internalType": "struct MyEpicGame.CharacterAttributes",
          "name": "",
          "type": "tuple"
        }
      ],
      "stateMutability": "view",
      "type": "function"
    },
    {
      "inputs": [],
      "name": "getAllDefaultCharacters",
      "outputs": [
        {
          "components": [
            {
              "internalType": "uint256",
              "name": "characterIndex",
              "type": "uint256"
            },
            {
              "internalType": "string",
              "name": "name",
              "type": "string"
            },
            {
              "internalType": "string",
              "name": "imageURI",
              "type": "string"
            },
            {
              "internalType": "uint256",
              "name": "hp",
              "type": "uint256"
            },
            {
              "internalType": "uint256",
              "name": "maxHp",
              "type": "uint256"
            },
            {
              "internalType": "uint256",
              "name": "attackDamage",
              "type": "uint256"
            }
          ],
          "internalType": "struct MyEpicGame.CharacterAttributes[]",
          "name": "",
          "type": "tuple[]"
        }
      ],
      "stateMutability": "view",
      "type": "function"
    },
    {
      "inputs": [
        {
          "internalType": "uint256",
          "name": "tokenId",
          "type": "uint256"
        }
      ],
      "name": "getApproved",
      "outputs": [
        {
          "internalType": "address",
          "name": "",
          "type": "address"
        }
      ],
      "stateMutability": "view",
      "type": "function"
    },
    {
      "inputs": [],
      "name": "getBigBoss",
      "outputs": [
        {
          "components": [
            {
              "internalType": "string",
              "name": "name",
              "type": "string"
            },
            {
              "internalType": "string",
              "name": "imageURI",
              "type": "string"
            },
            {
              "internalType": "uint256",
              "name": "hp",
              "type": "uint256"
            },
            {
              "internalType": "uint256",
              "name": "maxHp",
              "type": "uint256"
            },
            {
              "internalType": "uint256",
              "name": "attackDamage",
              "type": "uint256"
            }
          ],
          "internalType": "struct MyEpicGame.BigBoss",
          "name": "",
          "type": "tuple"
        }
      ],
      "stateMutability": "view",
      "type": "function"
    },
    {
      "inputs": [
        {
          "internalType": "address",
          "name": "owner",
          "type": "address"
        },
        {
          "internalType": "address",
          "name": "operator",
          "type": "address"
        }
      ],
      "name": "isApprovedForAll",
      "outputs": [
        {
          "internalType": "bool",
          "name": "",
          "type": "bool"
        }
      ],
      "stateMutability": "view",
      "type": "function"
    },
    {
      "inputs": [
        {
          "internalType": "uint256",
          "name": "_characterIndex",
          "type": "uint256"
        }
      ],
      "name": "mintCharacterNFT",
      "outputs": [],
      "stateMutability": "nonpayable",
      "type": "function"
    },
    {
      "inputs": [],
      "name": "name",
      "outputs": [
        {
          "internalType": "string",
          "name": "",
          "type": "string"
        }
      ],
      "stateMutability": "view",
      "type": "function"
    },
    {
      "inputs": [
        {
          "internalType": "uint256",
          "name": "",
          "type": "uint256"
        }
      ],
      "name": "nftHolderAttributes",
      "outputs": [
        {
          "internalType": "uint256",
          "name": "characterIndex",
          "type": "uint256"
        },
        {
          "internalType": "string",
          "name": "name",
          "type": "string"
        },
        {
          "internalType": "string",
          "name": "imageURI",
          "type": "string"
        },
        {
          "internalType": "uint256",
          "name": "hp",
          "type": "uint256"
        },
        {
          "internalType": "uint256",
          "name": "maxHp",
          "type": "uint256"
        },
        {
          "internalType": "uint256",
          "name": "attackDamage",
          "type": "uint256"
        }
      ],
      "stateMutability": "view",
      "type": "function"
    },
    {
      "inputs": [
        {
          "internalType": "address",
          "name": "",
          "type": "address"
        }
      ],
      "name": "nftHolders",
      "outputs": [
        {
          "internalType": "uint256",
          "name": "",
          "type": "uint256"
        }
      ],
      "stateMutability": "view",
      "type": "function"
    },
    {
      "inputs": [
        {
          "internalType": "uint256",
          "name": "tokenId",
          "type": "uint256"
        }
      ],
      "name": "ownerOf",
      "outputs": [
        {
          "internalType": "address",
          "name": "",
          "type": "address"
        }
      ],
      "stateMutability": "view",
      "type": "function"
    },
    {
      "inputs": [
        {
          "internalType": "address",
          "name": "from",
          "type": "address"
        },
        {
          "internalType": "address",
          "name": "to",
          "type": "address"
        },
        {
          "internalType": "uint256",
          "name": "tokenId",
          "type": "uint256"
        }
      ],
      "name": "safeTransferFrom",
      "outputs": [],
      "stateMutability": "nonpayable",
      "type": "function"
    },
    {
      "inputs": [
        {
          "internalType": "address",
          "name": "from",
          "type": "address"
        },
        {
          "internalType": "address",
          "name": "to",
          "type": "address"
        },
        {
          "internalType": "uint256",
          "name": "tokenId",
          "type": "uint256"
        },
        {
          "internalType": "bytes",
          "name": "data",
          "type": "bytes"
        }
      ],
      "name": "safeTransferFrom",
      "outputs": [],
      "stateMutability": "nonpayable",
      "type": "function"
    },
    {
      "inputs": [
        {
          "internalType": "address",
          "name": "operator",
          "type": "address"
        },
        {
          "internalType": "bool",
          "name": "approved",
          "type": "bool"
        }
      ],
      "name": "setApprovalForAll",
      "outputs": [],
      "stateMutability": "nonpayable",
      "type": "function"
    },
    {
      "inputs": [
        {
          "internalType": "bytes4",
          "name": "interfaceId",
          "type": "bytes4"
        }
      ],
      "name": "supportsInterface",
      "outputs": [
        {
          "internalType": "bool",
          "name": "",
          "type": "bool"
        }
      ],
      "stateMutability": "view",
      "type": "function"
    },
    {
      "inputs": [],
      "name": "symbol",
      "outputs": [
        {
          "internalType": "string",
          "name": "",
          "type": "string"
        }
      ],
      "stateMutability": "view",
      "type": "function"
    },
    {
      "inputs": [
        {
          "internalType": "uint256",
          "name": "_tokenId",
          "type": "uint256"
        }
      ],
      "name": "tokenURI",
      "outputs": [
        {
          "internalType": "string",
          "name": "",
          "type": "string"
        }
      ],
      "stateMutability": "view",
      "type": "function"
    },
    {
      "inputs": [
        {
          "internalType": "address",
          "name": "from",
          "type": "address"
        },
        {
          "internalType": "address",
          "name": "to",
          "type": "address"
        },
        {
          "internalType": "uint256",
          "name": "tokenId",
          "type": "uint256"
        }
      ],
      "name": "transferFrom",
      "outputs": [],
      "stateMutability": "nonpayable",
      "type": "function"
    }
  ],
  "bytecode": "0x60806040523480156200001157600080fd5b5060405162005a0a38038062005a0a833981810160405281019062000037919062000a9d565b6040518060400160405280600881526020017f4f6e6550696563650000000000000000000000000000000000000000000000008152506040518060400160405280600881526020017f4f4e4550494543450000000000000000000000000000000000000000000000008152508160009081620000b4919062000e61565b508060019081620000c6919062000e61565b50505060005b8851811015620003fe5760076040518060c001604052808381526020018b8481518110620000ff57620000fe62000f48565b5b602002602001015181526020018a848151811062000122576200012162000f48565b5b6020026020010151815260200189848151811062000145576200014462000f48565b5b6020026020010151815260200189848151811062000168576200016762000f48565b5b602002602001015181526020018884815181106200018b576200018a62000f48565b5b60200260200101518152509080600181540180825580915050600190039060005260206000209060060201600090919091909150600082015181600001556020820151816001019081620001e0919062000e61565b506040820151816002019081620001f8919062000e61565b50606082015181600301556080820151816004015560a08201518160050155505060006007828154811062000232576200023162000f48565b5b90600052602060002090600602016040518060c001604052908160008201548152602001600182018054620002679062000c5a565b80601f0160208091040260200160405190810160405280929190818152602001828054620002959062000c5a565b8015620002e65780601f10620002ba57610100808354040283529160200191620002e6565b820191906000526020600020905b815481529060010190602001808311620002c857829003601f168201915b50505050508152602001600282018054620003019062000c5a565b80601f01602080910402602001604051908101604052809291908181526020018280546200032f9062000c5a565b8015620003805780601f10620003545761010080835404028352916020019162000380565b820191906000526020600020905b8154815290600101906020018083116200036257829003601f168201915b5050505050815260200160038201548152602001600482015481526020016005820154815250509050620003e7604051806060016040528060268152602001620059bc602691398260200151836060015184604001516200056960201b6200193b1760201c565b508080620003f59062000fa6565b915050620000cc565b506200041660066200061560201b620019dd1760201c565b6040518060a00160405280858152602001848152602001838152602001838152602001828152506008600082015181600001908162000456919062000e61565b5060208201518160010190816200046e919062000e61565b506040820151816002015560608201518160030155608082015181600401559050506200055b604051806060016040528060288152602001620059e26028913960086002015460086001018054620004c69062000c5a565b80601f0160208091040260200160405190810160405280929190818152602001828054620004f49062000c5a565b8015620005455780601f10620005195761010080835404028352916020019162000545565b820191906000526020600020905b8154815290600101906020018083116200052757829003601f168201915b50505050506200062b60201b620019f31760201c565b505050505050505062001103565b6200060f8484848460405160240162000586949392919062001056565b6040516020818303038152906040527f5d1a971a000000000000000000000000000000000000000000000000000000007bffffffffffffffffffffffffffffffffffffffffffffffffffffffff19166020820180517bffffffffffffffffffffffffffffffffffffffffffffffffffffffff8381831617835250505050620006d460201b60201c565b50505050565b6001816000016000828254019250508190555050565b620006cf8383836040516024016200064693929190620010b8565b6040516020818303038152906040527f5970e089000000000000000000000000000000000000000000000000000000007bffffffffffffffffffffffffffffffffffffffffffffffffffffffff19166020820180517bffffffffffffffffffffffffffffffffffffffffffffffffffffffff8381831617835250505050620006d460201b60201c565b505050565b60008151905060006a636f6e736f6c652e6c6f679050602083016000808483855afa5050505050565b6000604051905090565b600080fd5b600080fd5b600080fd5b6000601f19601f8301169050919050565b7f4e487b7100000000000000000000000000000000000000000000000000000000600052604160045260246000fd5b620007618262000716565b810181811067ffffffffffffffff8211171562000783576200078262000727565b5b80604052505050565b600062000798620006fd565b9050620007a6828262000756565b919050565b600067ffffffffffffffff821115620007c957620007c862000727565b5b602082029050602081019050919050565b600080fd5b600080fd5b600067ffffffffffffffff82111562000802576200080162000727565b5b6200080d8262000716565b9050602081019050919050565b60005b838110156200083a5780820151818401526020810190506200081d565b60008484015250505050565b60006200085d6200085784620007e4565b6200078c565b9050828152602081018484840111156200087c576200087b620007df565b5b620008898482856200081a565b509392505050565b600082601f830112620008a957620008a862000711565b5b8151620008bb84826020860162000846565b91505092915050565b6000620008db620008d584620007ab565b6200078c565b90508083825260208201905060208402830185811115620009015762000900620007da565b5b835b818110156200094f57805167ffffffffffffffff8111156200092a576200092962000711565b5b80860162000939898262000891565b8552602085019450505060208101905062000903565b5050509392505050565b600082601f83011262000971576200097062000711565b5b815162000983848260208601620008c4565b91505092915050565b600067ffffffffffffffff821115620009aa57620009a962000727565b5b602082029050602081019050919050565b6000819050919050565b620009d081620009bb565b8114620009dc57600080fd5b50565b600081519050620009f081620009c5565b92915050565b600062000a0d62000a07846200098c565b6200078c565b9050808382526020820190506020840283018581111562000a335762000a32620007da565b5b835b8181101562000a60578062000a4b8882620009df565b84526020840193505060208101905062000a35565b5050509392505050565b600082601f83011262000a825762000a8162000711565b5b815162000a94848260208601620009f6565b91505092915050565b600080600080600080600080610100898b03121562000ac15762000ac062000707565b5b600089015167ffffffffffffffff81111562000ae25762000ae16200070c565b5b62000af08b828c0162000959565b985050602089015167ffffffffffffffff81111562000b145762000b136200070c565b5b62000b228b828c0162000959565b975050604089015167ffffffffffffffff81111562000b465762000b456200070c565b5b62000b548b828c0162000a6a565b965050606089015167ffffffffffffffff81111562000b785762000b776200070c565b5b62000b868b828c0162000a6a565b955050608089015167ffffffffffffffff81111562000baa5762000ba96200070c565b5b62000bb88b828c0162000891565b94505060a089015167ffffffffffffffff81111562000bdc5762000bdb6200070c565b5b62000bea8b828c0162000891565b93505060c062000bfd8b828c01620009df565b92505060e062000c108b828c01620009df565b9150509295985092959890939650565b600081519050919050565b7f4e487b7100000000000000000000000000000000000000000000000000000000600052602260045260246000fd5b6000600282049050600182168062000c7357607f821691505b60208210810362000c895762000c8862000c2b565b5b50919050565b60008190508160005260206000209050919050565b60006020601f8301049050919050565b600082821b905092915050565b60006008830262000cf37fffffffffffffffffffffffffffffffffffffffffffffffffffffffffffffffff8262000cb4565b62000cff868362000cb4565b95508019841693508086168417925050509392505050565b6000819050919050565b600062000d4262000d3c62000d3684620009bb565b62000d17565b620009bb565b9050919050565b6000819050919050565b62000d5e8362000d21565b62000d7662000d6d8262000d49565b84845462000cc1565b825550505050565b600090565b62000d8d62000d7e565b62000d9a81848462000d53565b505050565b5b8181101562000dc25762000db660008262000d83565b60018101905062000da0565b5050565b601f82111562000e115762000ddb8162000c8f565b62000de68462000ca4565b8101602085101562000df6578190505b62000e0e62000e058562000ca4565b83018262000d9f565b50505b505050565b600082821c905092915050565b600062000e366000198460080262000e16565b1980831691505092915050565b600062000e51838362000e23565b9150826002028217905092915050565b62000e6c8262000c20565b67ffffffffffffffff81111562000e885762000e8762000727565b5b62000e94825462000c5a565b62000ea182828562000dc6565b600060209050601f83116001811462000ed9576000841562000ec4578287015190505b62000ed0858262000e43565b86555062000f40565b601f19841662000ee98662000c8f565b60005b8281101562000f135784890151825560018201915060208501945060208101905062000eec565b8683101562000f33578489015162000f2f601f89168262000e23565b8355505b6001600288020188555050505b505050505050565b7f4e487b7100000000000000000000000000000000000000000000000000000000600052603260045260246000fd5b7f4e487b7100000000000000000000000000000000000000000000000000000000600052601160045260246000fd5b600062000fb382620009bb565b91507fffffffffffffffffffffffffffffffffffffffffffffffffffffffffffffffff820362000fe85762000fe762000f77565b5b600182019050919050565b600082825260208201905092915050565b6000620010118262000c20565b6200101d818562000ff3565b93506200102f8185602086016200081a565b6200103a8162000716565b840191505092915050565b6200105081620009bb565b82525050565b6000608082019050818103600083015262001072818762001004565b9050818103602083015262001088818662001004565b905062001099604083018562001045565b8181036060830152620010ad818462001004565b905095945050505050565b60006060820190508181036000830152620010d4818662001004565b9050620010e5602083018562001045565b8181036040830152620010f9818462001004565b9050949350505050565b6148a980620011136000396000f3fe608060405234801561001057600080fd5b506004361061012c5760003560e01c806395d89b41116100ad578063c87b56dd11610071578063c87b56dd1461035a578063c8cf27f41461038a578063d4f24c5b146103a8578063e985e9c5146103b2578063f8b81ef7146103e25761012c565b806395d89b41146102b157806398da4c95146102cf578063a22cb46514610304578063b88d4fde14610320578063b953084e1461033c5761012c565b806323b872dd116100f457806323b872dd146101e957806342842e0e146102055780636352211e1461022157806370a08231146102515780637df124a1146102815761012c565b806301ffc9a7146101315780630665f9611461016157806306fdde031461017f578063081812fc1461019d578063095ea7b3146101cd575b600080fd5b61014b60048036038101906101469190612cc5565b6103fe565b6040516101589190612d0d565b60405180910390f35b6101696104e0565b6040516101769190612e4e565b60405180910390f35b61018761063c565b6040516101949190612eba565b60405180910390f35b6101b760048036038101906101b29190612f08565b6106ce565b6040516101c49190612f76565b60405180910390f35b6101e760048036038101906101e29190612fbd565b610714565b005b61020360048036038101906101fe9190612ffd565b61082b565b005b61021f600480360381019061021a9190612ffd565b61088b565b005b61023b60048036038101906102369190612f08565b6108ab565b6040516102489190612f76565b60405180910390f35b61026b60048036038101906102669190613050565b610931565b604051610278919061308c565b60405180910390f35b61029b60048036038101906102969190613050565b6109e8565b6040516102a8919061308c565b60405180910390f35b6102b9610a00565b6040516102c69190612eba565b60405180910390f35b6102e960048036038101906102e49190612f08565b610a92565b6040516102fb969594939291906130a7565b60405180910390f35b61031e60048036038101906103199190613142565b610bde565b005b61033a600480360381019061033591906132b7565b610bf4565b005b610344610c56565b604051610351919061348c565b60405180910390f35b610374600480360381019061036f9190612f08565b610e01565b6040516103819190612eba565b60405180910390f35b61039261101c565b60405161039f919061353e565b60405180910390f35b6103b06111f4565b005b6103cc60048036038101906103c79190613560565b61157f565b6040516103d99190612d0d565b60405180910390f35b6103fc60048036038101906103f79190612f08565b611613565b005b60007f80ac58cd000000000000000000000000000000000000000000000000000000007bffffffffffffffffffffffffffffffffffffffffffffffffffffffff1916827bffffffffffffffffffffffffffffffffffffffffffffffffffffffff191614806104c957507f5b5e139f000000000000000000000000000000000000000000000000000000007bffffffffffffffffffffffffffffffffffffffffffffffffffffffff1916827bffffffffffffffffffffffffffffffffffffffffffffffffffffffff1916145b806104d957506104d882611a92565b5b9050919050565b6104e8612bf4565b60086040518060a0016040529081600082018054610505906135cf565b80601f0160208091040260200160405190810160405280929190818152602001828054610531906135cf565b801561057e5780601f106105535761010080835404028352916020019161057e565b820191906000526020600020905b81548152906001019060200180831161056157829003601f168201915b50505050508152602001600182018054610597906135cf565b80601f01602080910402602001604051908101604052809291908181526020018280546105c3906135cf565b80156106105780601f106105e557610100808354040283529160200191610610565b820191906000526020600020905b8154815290600101906020018083116105f357829003601f168201915b505050505081526020016002820154815260200160038201548152602001600482015481525050905090565b60606000805461064b906135cf565b80601f0160208091040260200160405190810160405280929190818152602001828054610677906135cf565b80156106c45780601f10610699576101008083540402835291602001916106c4565b820191906000526020600020905b8154815290600101906020018083116106a757829003601f168201915b5050505050905090565b60006106d982611afc565b6004600083815260200190815260200160002060009054906101000a900473ffffffffffffffffffffffffffffffffffffffff169050919050565b600061071f826108ab565b90508073ffffffffffffffffffffffffffffffffffffffff168373ffffffffffffffffffffffffffffffffffffffff160361078f576040517f08c379a000000000000000000000000000000000000000000000000000000000815260040161078690613672565b60405180910390fd5b8073ffffffffffffffffffffffffffffffffffffffff166107ae611b47565b73ffffffffffffffffffffffffffffffffffffffff1614806107dd57506107dc816107d7611b47565b61157f565b5b61081c576040517f08c379a000000000000000000000000000000000000000000000000000000000815260040161081390613704565b60405180910390fd5b6108268383611b4f565b505050565b61083c610836611b47565b82611c08565b61087b576040517f08c379a000000000000000000000000000000000000000000000000000000000815260040161087290613796565b60405180910390fd5b610886838383611c9d565b505050565b6108a683838360405180602001604052806000815250610bf4565b505050565b6000806108b783611f96565b9050600073ffffffffffffffffffffffffffffffffffffffff168173ffffffffffffffffffffffffffffffffffffffff1603610928576040517f08c379a000000000000000000000000000000000000000000000000000000000815260040161091f90613802565b60405180910390fd5b80915050919050565b60008073ffffffffffffffffffffffffffffffffffffffff168273ffffffffffffffffffffffffffffffffffffffff16036109a1576040517f08c379a000000000000000000000000000000000000000000000000000000000815260040161099890613894565b60405180910390fd5b600360008373ffffffffffffffffffffffffffffffffffffffff1673ffffffffffffffffffffffffffffffffffffffff168152602001908152602001600020549050919050565b600e6020528060005260406000206000915090505481565b606060018054610a0f906135cf565b80601f0160208091040260200160405190810160405280929190818152602001828054610a3b906135cf565b8015610a885780601f10610a5d57610100808354040283529160200191610a88565b820191906000526020600020905b815481529060010190602001808311610a6b57829003601f168201915b5050505050905090565b600d602052806000526040600020600091509050806000015490806001018054610abb906135cf565b80601f0160208091040260200160405190810160405280929190818152602001828054610ae7906135cf565b8015610b345780601f10610b0957610100808354040283529160200191610b34565b820191906000526020600020905b815481529060010190602001808311610b1757829003601f168201915b505050505090806002018054610b49906135cf565b80601f0160208091040260200160405190810160405280929190818152602001828054610b75906135cf565b8015610bc25780601f10610b9757610100808354040283529160200191610bc2565b820191906000526020600020905b815481529060010190602001808311610ba557829003601f168201915b5050505050908060030154908060040154908060050154905086565b610bf0610be9611b47565b8383611fd3565b5050565b610c05610bff611b47565b83611c08565b610c44576040517f08c379a0000000000000000000000000000000000000000000000000000000008152600401610c3b90613796565b60405180910390fd5b610c508484848461213f565b50505050565b60606007805480602002602001604051908101604052809291908181526020016000905b82821015610df857838290600052602060002090600602016040518060c001604052908160008201548152602001600182018054610cb7906135cf565b80601f0160208091040260200160405190810160405280929190818152602001828054610ce3906135cf565b8015610d305780601f10610d0557610100808354040283529160200191610d30565b820191906000526020600020905b815481529060010190602001808311610d1357829003601f168201915b50505050508152602001600282018054610d49906135cf565b80601f0160208091040260200160405190810160405280929190818152602001828054610d75906135cf565b8015610dc25780601f10610d9757610100808354040283529160200191610dc2565b820191906000526020600020905b815481529060010190602001808311610da557829003601f168201915b50505050508152602001600382015481526020016004820154815260200160058201548152505081526020019060010190610c7a565b50505050905090565b60606000600d60008481526020019081526020016000206040518060c001604052908160008201548152602001600182018054610e3d906135cf565b80601f0160208091040260200160405190810160405280929190818152602001828054610e69906135cf565b8015610eb65780601f10610e8b57610100808354040283529160200191610eb6565b820191906000526020600020905b815481529060010190602001808311610e9957829003601f168201915b50505050508152602001600282018054610ecf906135cf565b80601f0160208091040260200160405190810160405280929190818152602001828054610efb906135cf565b8015610f485780601f10610f1d57610100808354040283529160200191610f48565b820191906000526020600020905b815481529060010190602001808311610f2b57829003601f168201915b50505050508152602001600382015481526020016004820154815260200160058201548152505090506000610f80826060015161219b565b90506000610f91836080015161219b565b90506000610fa28460a0015161219b565b90506000610fe88560200151610fb78961219b565b8760400151878787604051602001610fd496959493929190613bc2565b604051602081830303815290604052612269565b9050600081604051602001610ffd9190613cb3565b6040516020818303038152906040529050809650505050505050919050565b611024612c23565b6000600e60003373ffffffffffffffffffffffffffffffffffffffff1673ffffffffffffffffffffffffffffffffffffffff16815260200190815260200160002054905060008111156111e357600d60008281526020019081526020016000206040518060c0016040529081600082015481526020016001820180546110a9906135cf565b80601f01602080910402602001604051908101604052809291908181526020018280546110d5906135cf565b80156111225780601f106110f757610100808354040283529160200191611122565b820191906000526020600020905b81548152906001019060200180831161110557829003601f168201915b5050505050815260200160028201805461113b906135cf565b80601f0160208091040260200160405190810160405280929190818152602001828054611167906135cf565b80156111b45780601f10611189576101008083540402835291602001916111b4565b820191906000526020600020905b81548152906001019060200180831161119757829003601f168201915b5050505050815260200160038201548152602001600482015481526020016005820154815250509150506111f1565b6111eb612c23565b80925050505b90565b6000600e60003373ffffffffffffffffffffffffffffffffffffffff1673ffffffffffffffffffffffffffffffffffffffff1681526020019081526020016000205490506000600d600083815260200190815260200160002090506113076040518060600160405280603c8152602001614838603c913982600101805461127a906135cf565b80601f01602080910402602001604051908101604052809291908181526020018280546112a6906135cf565b80156112f35780601f106112c8576101008083540402835291602001916112f3565b820191906000526020600020905b8154815290600101906020018083116112d657829003601f168201915b505050505083600301548460050154612400565b6113df6040518060400160405280601b81526020017f426f73732025732068617320257320485020616e64202573204144000000000081525060086000018054611350906135cf565b80601f016020809104026020016040519081016040528092919081815260200182805461137c906135cf565b80156113c95780601f1061139e576101008083540402835291602001916113c9565b820191906000526020600020905b8154815290600101906020018083116113ac57829003601f168201915b5050505050600860020154600860040154612400565b6000816003015411611426576040517f08c379a000000000000000000000000000000000000000000000000000000000815260040161141d90613d47565b60405180910390fd5b60006008600201541161146e576040517f08c379a000000000000000000000000000000000000000000000000000000000815260040161146590613dd9565b60405180910390fd5b8060050154600860020154101561148f5760006008600201819055506114ae565b80600501546008600201546114a49190613e28565b6008600201819055505b600860040154816003015410156114ce57600081600301819055506114ec565b60086004015481600301546114e39190613e28565b81600301819055505b7f838ab28464562786a6c4ab2311964b82fa60bd9b14aa7e856af1f3f18d41a4146008600201548260030154604051611526929190613e5c565b60405180910390a161155560405180606001604052806025815260200161477d602591396008600201546124a2565b61157b6040518060600160405280602881526020016147e26028913982600301546124a2565b5050565b6000600560008473ffffffffffffffffffffffffffffffffffffffff1673ffffffffffffffffffffffffffffffffffffffff16815260200190815260200160002060008373ffffffffffffffffffffffffffffffffffffffff1673ffffffffffffffffffffffffffffffffffffffff16815260200190815260200160002060009054906101000a900460ff16905092915050565b600061161f600661253e565b905061162b338261254c565b6040518060c00160405280838152602001600784815481106116505761164f613e85565b5b9060005260206000209060060201600101805461166c906135cf565b80601f0160208091040260200160405190810160405280929190818152602001828054611698906135cf565b80156116e55780601f106116ba576101008083540402835291602001916116e5565b820191906000526020600020905b8154815290600101906020018083116116c857829003601f168201915b505050505081526020016007848154811061170357611702613e85565b5b9060005260206000209060060201600201805461171f906135cf565b80601f016020809104026020016040519081016040528092919081815260200182805461174b906135cf565b80156117985780601f1061176d57610100808354040283529160200191611798565b820191906000526020600020905b81548152906001019060200180831161177b57829003601f168201915b50505050508152602001600784815481106117b6576117b5613e85565b5b9060005260206000209060060201600301548152602001600784815481106117e1576117e0613e85565b5b90600052602060002090600602016004015481526020016007848154811061180c5761180b613e85565b5b906000526020600020906006020160050154815250600d60008381526020019081526020016000206000820151816000015560208201518160010190816118539190614060565b5060408201518160020190816118699190614060565b50606082015181600301556080820151816004015560a082015181600501559050506118ae6040518060600160405280602e815260200161480a602e9139828461256a565b80600e60003373ffffffffffffffffffffffffffffffffffffffff1673ffffffffffffffffffffffffffffffffffffffff168152602001908152602001600020819055506118fc60066119dd565b7f4bc303fd457a97b4691b9af582ce71868a3d258638c8d4f8c60988a0f0bfb8cd33828460405161192f93929190614132565b60405180910390a15050565b6119d7848484846040516024016119559493929190614169565b6040516020818303038152906040527f5d1a971a000000000000000000000000000000000000000000000000000000007bffffffffffffffffffffffffffffffffffffffffffffffffffffffff19166020820180517bffffffffffffffffffffffffffffffffffffffffffffffffffffffff8381831617835250505050612609565b50505050565b6001816000016000828254019250508190555050565b611a8d838383604051602401611a0b939291906141c3565b6040516020818303038152906040527f5970e089000000000000000000000000000000000000000000000000000000007bffffffffffffffffffffffffffffffffffffffffffffffffffffffff19166020820180517bffffffffffffffffffffffffffffffffffffffffffffffffffffffff8381831617835250505050612609565b505050565b60007f01ffc9a7000000000000000000000000000000000000000000000000000000007bffffffffffffffffffffffffffffffffffffffffffffffffffffffff1916827bffffffffffffffffffffffffffffffffffffffffffffffffffffffff1916149050919050565b611b0581612632565b611b44576040517f08c379a0000000000000000000000000000000000000000000000000000000008152600401611b3b90613802565b60405180910390fd5b50565b600033905090565b816004600083815260200190815260200160002060006101000a81548173ffffffffffffffffffffffffffffffffffffffff021916908373ffffffffffffffffffffffffffffffffffffffff160217905550808273ffffffffffffffffffffffffffffffffffffffff16611bc2836108ab565b73ffffffffffffffffffffffffffffffffffffffff167f8c5be1e5ebec7d5bd14f71427d1e84f3dd0314c0f7b2291e5b200ac8c7c3b92560405160405180910390a45050565b600080611c14836108ab565b90508073ffffffffffffffffffffffffffffffffffffffff168473ffffffffffffffffffffffffffffffffffffffff161480611c565750611c55818561157f565b5b80611c9457508373ffffffffffffffffffffffffffffffffffffffff16611c7c846106ce565b73ffffffffffffffffffffffffffffffffffffffff16145b91505092915050565b8273ffffffffffffffffffffffffffffffffffffffff16611cbd826108ab565b73ffffffffffffffffffffffffffffffffffffffff1614611d13576040517f08c379a0000000000000000000000000000000000000000000000000000000008152600401611d0a9061427a565b60405180910390fd5b600073ffffffffffffffffffffffffffffffffffffffff168273ffffffffffffffffffffffffffffffffffffffff1603611d82576040517f08c379a0000000000000000000000000000000000000000000000000000000008152600401611d799061430c565b60405180910390fd5b611d8f8383836001612673565b8273ffffffffffffffffffffffffffffffffffffffff16611daf826108ab565b73ffffffffffffffffffffffffffffffffffffffff1614611e05576040517f08c379a0000000000000000000000000000000000000000000000000000000008152600401611dfc9061427a565b60405180910390fd5b6004600082815260200190815260200160002060006101000a81549073ffffffffffffffffffffffffffffffffffffffff02191690556001600360008573ffffffffffffffffffffffffffffffffffffffff1673ffffffffffffffffffffffffffffffffffffffff168152602001908152602001600020600082825403925050819055506001600360008473ffffffffffffffffffffffffffffffffffffffff1673ffffffffffffffffffffffffffffffffffffffff16815260200190815260200160002060008282540192505081905550816002600083815260200190815260200160002060006101000a81548173ffffffffffffffffffffffffffffffffffffffff021916908373ffffffffffffffffffffffffffffffffffffffff160217905550808273ffffffffffffffffffffffffffffffffffffffff168473ffffffffffffffffffffffffffffffffffffffff167fddf252ad1be2c89b69c2b068fc378daa952ba7f163c4a11628f55a4df523b3ef60405160405180910390a4611f918383836001612679565b505050565b60006002600083815260200190815260200160002060009054906101000a900473ffffffffffffffffffffffffffffffffffffffff169050919050565b8173ffffffffffffffffffffffffffffffffffffffff168373ffffffffffffffffffffffffffffffffffffffff1603612041576040517f08c379a000000000000000000000000000000000000000000000000000000000815260040161203890614378565b60405180910390fd5b80600560008573ffffffffffffffffffffffffffffffffffffffff1673ffffffffffffffffffffffffffffffffffffffff16815260200190815260200160002060008473ffffffffffffffffffffffffffffffffffffffff1673ffffffffffffffffffffffffffffffffffffffff16815260200190815260200160002060006101000a81548160ff0219169083151502179055508173ffffffffffffffffffffffffffffffffffffffff168373ffffffffffffffffffffffffffffffffffffffff167f17307eab39ab6107e8899845ad3d59bd9653f200f220920489ca2b5937696c31836040516121329190612d0d565b60405180910390a3505050565b61214a848484611c9d565b6121568484848461267f565b612195576040517f08c379a000000000000000000000000000000000000000000000000000000000815260040161218c9061440a565b60405180910390fd5b50505050565b6060600060016121aa84612806565b01905060008167ffffffffffffffff8111156121c9576121c861318c565b5b6040519080825280601f01601f1916602001820160405280156121fb5781602001600182028036833780820191505090505b509050600082602001820190505b60011561225e578080600190039150507f3031323334353637383961626364656600000000000000000000000000000000600a86061a8153600a85816122525761225161442a565b5b04945060008503612209575b819350505050919050565b60606000825190506000810361229157604051806020016040528060008152509150506123fb565b600060036002836122a29190614459565b6122ac919061448d565b60046122b891906144be565b905060006020826122c99190614459565b67ffffffffffffffff8111156122e2576122e161318c565b5b6040519080825280601f01601f1916602001820160405280156123145781602001600182028036833780820191505090505b50905060006040518060600160405280604081526020016147a2604091399050600181016020830160005b868110156123b85760038101905062ffffff818a015116603f8160121c168401518060081b905060ff603f83600c1c1686015116810190508060081b905060ff603f8360061c1686015116810190508060081b905060ff603f831686015116810190508060e01b9050808452600484019350505061233f565b5060038606600181146123d257600281146123e2576123ed565b613d3d60f01b60028303526123ed565b603d60f81b60018303525b508484525050819450505050505b919050565b61249c8484848460405160240161241a9493929190614500565b6040516020818303038152906040527ff45d7d2c000000000000000000000000000000000000000000000000000000007bffffffffffffffffffffffffffffffffffffffffffffffffffffffff19166020820180517bffffffffffffffffffffffffffffffffffffffffffffffffffffffff8381831617835250505050612609565b50505050565b61253a82826040516024016124b8929190614553565b6040516020818303038152906040527fb60e72cc000000000000000000000000000000000000000000000000000000007bffffffffffffffffffffffffffffffffffffffffffffffffffffffff19166020820180517bffffffffffffffffffffffffffffffffffffffffffffffffffffffff8381831617835250505050612609565b5050565b600081600001549050919050565b612566828260405180602001604052806000815250612959565b5050565b61260483838360405160240161258293929190614583565b6040516020818303038152906040527fca47c4eb000000000000000000000000000000000000000000000000000000007bffffffffffffffffffffffffffffffffffffffffffffffffffffffff19166020820180517bffffffffffffffffffffffffffffffffffffffffffffffffffffffff8381831617835250505050612609565b505050565b60008151905060006a636f6e736f6c652e6c6f679050602083016000808483855afa5050505050565b60008073ffffffffffffffffffffffffffffffffffffffff1661265483611f96565b73ffffffffffffffffffffffffffffffffffffffff1614159050919050565b50505050565b50505050565b60006126a08473ffffffffffffffffffffffffffffffffffffffff166129b4565b156127f9578373ffffffffffffffffffffffffffffffffffffffff1663150b7a026126c9611b47565b8786866040518563ffffffff1660e01b81526004016126eb9493929190614616565b6020604051808303816000875af192505050801561272757506040513d601f19601f820116820180604052508101906127249190614677565b60015b6127a9573d8060008114612757576040519150601f19603f3d011682016040523d82523d6000602084013e61275c565b606091505b5060008151036127a1576040517f08c379a00000000000000000000000000000000000000000000000000000000081526004016127989061440a565b60405180910390fd5b805181602001fd5b63150b7a0260e01b7bffffffffffffffffffffffffffffffffffffffffffffffffffffffff1916817bffffffffffffffffffffffffffffffffffffffffffffffffffffffff1916149150506127fe565b600190505b949350505050565b600080600090507a184f03e93ff9f4daa797ed6e38ed64bf6a1f0100000000000000008310612864577a184f03e93ff9f4daa797ed6e38ed64bf6a1f010000000000000000838161285a5761285961442a565b5b0492506040810190505b6d04ee2d6d415b85acef810000000083106128a1576d04ee2d6d415b85acef810000000083816128975761289661442a565b5b0492506020810190505b662386f26fc1000083106128d057662386f26fc1000083816128c6576128c561442a565b5b0492506010810190505b6305f5e10083106128f9576305f5e10083816128ef576128ee61442a565b5b0492506008810190505b612710831061291e5761271083816129145761291361442a565b5b0492506004810190505b6064831061294157606483816129375761293661442a565b5b0492506002810190505b600a8310612950576001810190505b80915050919050565b61296383836129d7565b612970600084848461267f565b6129af576040517f08c379a00000000000000000000000000000000000000000000000000000000081526004016129a69061440a565b60405180910390fd5b505050565b6000808273ffffffffffffffffffffffffffffffffffffffff163b119050919050565b600073ffffffffffffffffffffffffffffffffffffffff168273ffffffffffffffffffffffffffffffffffffffff1603612a46576040517f08c379a0000000000000000000000000000000000000000000000000000000008152600401612a3d906146f0565b60405180910390fd5b612a4f81612632565b15612a8f576040517f08c379a0000000000000000000000000000000000000000000000000000000008152600401612a869061475c565b60405180910390fd5b612a9d600083836001612673565b612aa681612632565b15612ae6576040517f08c379a0000000000000000000000000000000000000000000000000000000008152600401612add9061475c565b60405180910390fd5b6001600360008473ffffffffffffffffffffffffffffffffffffffff1673ffffffffffffffffffffffffffffffffffffffff16815260200190815260200160002060008282540192505081905550816002600083815260200190815260200160002060006101000a81548173ffffffffffffffffffffffffffffffffffffffff021916908373ffffffffffffffffffffffffffffffffffffffff160217905550808273ffffffffffffffffffffffffffffffffffffffff16600073ffffffffffffffffffffffffffffffffffffffff167fddf252ad1be2c89b69c2b068fc378daa952ba7f163c4a11628f55a4df523b3ef60405160405180910390a4612bf0600083836001612679565b5050565b6040518060a0016040528060608152602001606081526020016000815260200160008152602001600081525090565b6040518060c001604052806000815260200160608152602001606081526020016000815260200160008152602001600081525090565b6000604051905090565b600080fd5b600080fd5b60007fffffffff0000000000000000000000000000000000000000000000000000000082169050919050565b612ca281612c6d565b8114612cad57600080fd5b50565b600081359050612cbf81612c99565b92915050565b600060208284031215612cdb57612cda612c63565b5b6000612ce984828501612cb0565b91505092915050565b60008115159050919050565b612d0781612cf2565b82525050565b6000602082019050612d226000830184612cfe565b92915050565b600081519050919050565b600082825260208201905092915050565b60005b83811015612d62578082015181840152602081019050612d47565b60008484015250505050565b6000601f19601f8301169050919050565b6000612d8a82612d28565b612d948185612d33565b9350612da4818560208601612d44565b612dad81612d6e565b840191505092915050565b6000819050919050565b612dcb81612db8565b82525050565b600060a0830160008301518482036000860152612dee8282612d7f565b91505060208301518482036020860152612e088282612d7f565b9150506040830151612e1d6040860182612dc2565b506060830151612e306060860182612dc2565b506080830151612e436080860182612dc2565b508091505092915050565b60006020820190508181036000830152612e688184612dd1565b905092915050565b600082825260208201905092915050565b6000612e8c82612d28565b612e968185612e70565b9350612ea6818560208601612d44565b612eaf81612d6e565b840191505092915050565b60006020820190508181036000830152612ed48184612e81565b905092915050565b612ee581612db8565b8114612ef057600080fd5b50565b600081359050612f0281612edc565b92915050565b600060208284031215612f1e57612f1d612c63565b5b6000612f2c84828501612ef3565b91505092915050565b600073ffffffffffffffffffffffffffffffffffffffff82169050919050565b6000612f6082612f35565b9050919050565b612f7081612f55565b82525050565b6000602082019050612f8b6000830184612f67565b92915050565b612f9a81612f55565b8114612fa557600080fd5b50565b600081359050612fb781612f91565b92915050565b60008060408385031215612fd457612fd3612c63565b5b6000612fe285828601612fa8565b9250506020612ff385828601612ef3565b9150509250929050565b60008060006060848603121561301657613015612c63565b5b600061302486828701612fa8565b935050602061303586828701612fa8565b925050604061304686828701612ef3565b9150509250925092565b60006020828403121561306657613065612c63565b5b600061307484828501612fa8565b91505092915050565b61308681612db8565b82525050565b60006020820190506130a1600083018461307d565b92915050565b600060c0820190506130bc600083018961307d565b81810360208301526130ce8188612e81565b905081810360408301526130e28187612e81565b90506130f1606083018661307d565b6130fe608083018561307d565b61310b60a083018461307d565b979650505050505050565b61311f81612cf2565b811461312a57600080fd5b50565b60008135905061313c81613116565b92915050565b6000806040838503121561315957613158612c63565b5b600061316785828601612fa8565b92505060206131788582860161312d565b9150509250929050565b600080fd5b600080fd5b7f4e487b7100000000000000000000000000000000000000000000000000000000600052604160045260246000fd5b6131c482612d6e565b810181811067ffffffffffffffff821117156131e3576131e261318c565b5b80604052505050565b60006131f6612c59565b905061320282826131bb565b919050565b600067ffffffffffffffff8211156132225761322161318c565b5b61322b82612d6e565b9050602081019050919050565b82818337600083830152505050565b600061325a61325584613207565b6131ec565b90508281526020810184848401111561327657613275613187565b5b613281848285613238565b509392505050565b600082601f83011261329e5761329d613182565b5b81356132ae848260208601613247565b91505092915050565b600080600080608085870312156132d1576132d0612c63565b5b60006132df87828801612fa8565b94505060206132f087828801612fa8565b935050604061330187828801612ef3565b925050606085013567ffffffffffffffff81111561332257613321612c68565b5b61332e87828801613289565b91505092959194509250565b600081519050919050565b600082825260208201905092915050565b6000819050602082019050919050565b600060c08301600083015161337e6000860182612dc2565b50602083015184820360208601526133968282612d7f565b915050604083015184820360408601526133b08282612d7f565b91505060608301516133c56060860182612dc2565b5060808301516133d86080860182612dc2565b5060a08301516133eb60a0860182612dc2565b508091505092915050565b60006134028383613366565b905092915050565b6000602082019050919050565b60006134228261333a565b61342c8185613345565b93508360208202850161343e85613356565b8060005b8581101561347a578484038952815161345b85826133f6565b94506134668361340a565b925060208a01995050600181019050613442565b50829750879550505050505092915050565b600060208201905081810360008301526134a68184613417565b905092915050565b600060c0830160008301516134c66000860182612dc2565b50602083015184820360208601526134de8282612d7f565b915050604083015184820360408601526134f88282612d7f565b915050606083015161350d6060860182612dc2565b5060808301516135206080860182612dc2565b5060a083015161353360a0860182612dc2565b508091505092915050565b6000602082019050818103600083015261355881846134ae565b905092915050565b6000806040838503121561357757613576612c63565b5b600061358585828601612fa8565b925050602061359685828601612fa8565b9150509250929050565b7f4e487b7100000000000000000000000000000000000000000000000000000000600052602260045260246000fd5b600060028204905060018216806135e757607f821691505b6020821081036135fa576135f96135a0565b5b50919050565b7f4552433732313a20617070726f76616c20746f2063757272656e74206f776e6560008201527f7200000000000000000000000000000000000000000000000000000000000000602082015250565b600061365c602183612e70565b915061366782613600565b604082019050919050565b6000602082019050818103600083015261368b8161364f565b9050919050565b7f4552433732313a20617070726f76652063616c6c6572206973206e6f7420746f60008201527f6b656e206f776e6572206f7220617070726f76656420666f7220616c6c000000602082015250565b60006136ee603d83612e70565b91506136f982613692565b604082019050919050565b6000602082019050818103600083015261371d816136e1565b9050919050565b7f4552433732313a2063616c6c6572206973206e6f7420746f6b656e206f776e6560008201527f72206f7220617070726f76656400000000000000000000000000000000000000602082015250565b6000613780602d83612e70565b915061378b82613724565b604082019050919050565b600060208201905081810360008301526137af81613773565b9050919050565b7f4552433732313a20696e76616c696420746f6b656e2049440000000000000000600082015250565b60006137ec601883612e70565b91506137f7826137b6565b602082019050919050565b6000602082019050818103600083015261381b816137df565b9050919050565b7f4552433732313a2061646472657373207a65726f206973206e6f74206120766160008201527f6c6964206f776e65720000000000000000000000000000000000000000000000602082015250565b600061387e602983612e70565b915061388982613822565b604082019050919050565b600060208201905081810360008301526138ad81613871565b9050919050565b600081905092915050565b7f7b226e616d65223a202200000000000000000000000000000000000000000000600082015250565b60006138f5600a836138b4565b9150613900826138bf565b600a82019050919050565b600061391682612d28565b61392081856138b4565b9350613930818560208601612d44565b80840191505092915050565b7f202d2d204e465420233a20000000000000000000000000000000000000000000600082015250565b6000613972600b836138b4565b915061397d8261393c565b600b82019050919050565b7f222c20226465736372697074696f6e223a2022546869732069732020616e204e60008201527f46542074686174206c6574732070656f706c6520706c617920696e207468652060208201527f67616d65204d657461766572736520536c6179657221222c2022696d6167652260408201527f3a20220000000000000000000000000000000000000000000000000000000000606082015250565b6000613a306063836138b4565b9150613a3b82613988565b606382019050919050565b7f222c202261747472696275746573223a205b7b2274726169745f74797065223a60008201527f20224865616c746820506f696e7473222c202276616c7565223a200000000000602082015250565b6000613aa2603b836138b4565b9150613aad82613a46565b603b82019050919050565b7f2c20226d61785f76616c7565223a200000000000000000000000000000000000600082015250565b6000613aee600f836138b4565b9150613af982613ab8565b600f82019050919050565b7f7d2c207b2274726169745f74797065223a202241747461636b2044616d61676560008201527f222c2276616c7565223a20000000000000000000000000000000000000000000602082015250565b6000613b60602b836138b4565b9150613b6b82613b04565b602b82019050919050565b7f7d5d7d0000000000000000000000000000000000000000000000000000000000600082015250565b6000613bac6003836138b4565b9150613bb782613b76565b600382019050919050565b6000613bcd826138e8565b9150613bd9828961390b565b9150613be482613965565b9150613bf0828861390b565b9150613bfb82613a23565b9150613c07828761390b565b9150613c1282613a95565b9150613c1e828661390b565b9150613c2982613ae1565b9150613c35828561390b565b9150613c4082613b53565b9150613c4c828461390b565b9150613c5782613b9f565b9150819050979650505050505050565b7f646174613a6170706c69636174696f6e2f6a736f6e3b6261736536342c000000600082015250565b6000613c9d601d836138b4565b9150613ca882613c67565b601d82019050919050565b6000613cbe82613c90565b9150613cca828461390b565b915081905092915050565b7f4572726f723a20636861726163746572206d757374206861766520485020746f60008201527f2061747461636b20626f73732e00000000000000000000000000000000000000602082015250565b6000613d31602d83612e70565b9150613d3c82613cd5565b604082019050919050565b60006020820190508181036000830152613d6081613d24565b9050919050565b7f4572726f723a20626f7373206d757374206861766520485020746f206174746160008201527f636b20636861726163746572732e000000000000000000000000000000000000602082015250565b6000613dc3602e83612e70565b9150613dce82613d67565b604082019050919050565b60006020820190508181036000830152613df281613db6565b9050919050565b7f4e487b7100000000000000000000000000000000000000000000000000000000600052601160045260246000fd5b6000613e3382612db8565b9150613e3e83612db8565b9250828203905081811115613e5657613e55613df9565b5b92915050565b6000604082019050613e71600083018561307d565b613e7e602083018461307d565b9392505050565b7f4e487b7100000000000000000000000000000000000000000000000000000000600052603260045260246000fd5b60008190508160005260206000209050919050565b60006020601f8301049050919050565b600082821b905092915050565b600060088302613f167fffffffffffffffffffffffffffffffffffffffffffffffffffffffffffffffff82613ed9565b613f208683613ed9565b95508019841693508086168417925050509392505050565b6000819050919050565b6000613f5d613f58613f5384612db8565b613f38565b612db8565b9050919050565b6000819050919050565b613f7783613f42565b613f8b613f8382613f64565b848454613ee6565b825550505050565b600090565b613fa0613f93565b613fab818484613f6e565b505050565b5b81811015613fcf57613fc4600082613f98565b600181019050613fb1565b5050565b601f82111561401457613fe581613eb4565b613fee84613ec9565b81016020851015613ffd578190505b61401161400985613ec9565b830182613fb0565b50505b505050565b600082821c905092915050565b600061403760001984600802614019565b1980831691505092915050565b60006140508383614026565b9150826002028217905092915050565b61406982612d28565b67ffffffffffffffff8111156140825761408161318c565b5b61408c82546135cf565b614097828285613fd3565b600060209050601f8311600181146140ca57600084156140b8578287015190505b6140c28582614044565b86555061412a565b601f1984166140d886613eb4565b60005b82811015614100578489015182556001820191506020850194506020810190506140db565b8683101561411d5784890151614119601f891682614026565b8355505b6001600288020188555050505b505050505050565b60006060820190506141476000830186612f67565b614154602083018561307d565b614161604083018461307d565b949350505050565b600060808201905081810360008301526141838187612e81565b905081810360208301526141978186612e81565b90506141a6604083018561307d565b81810360608301526141b88184612e81565b905095945050505050565b600060608201905081810360008301526141dd8186612e81565b90506141ec602083018561307d565b81810360408301526141fe8184612e81565b9050949350505050565b7f4552433732313a207472616e736665722066726f6d20696e636f72726563742060008201527f6f776e6572000000000000000000000000000000000000000000000000000000602082015250565b6000614264602583612e70565b915061426f82614208565b604082019050919050565b6000602082019050818103600083015261429381614257565b9050919050565b7f4552433732313a207472616e7366657220746f20746865207a65726f2061646460008201527f7265737300000000000000000000000000000000000000000000000000000000602082015250565b60006142f6602483612e70565b91506143018261429a565b604082019050919050565b60006020820190508181036000830152614325816142e9565b9050919050565b7f4552433732313a20617070726f766520746f2063616c6c657200000000000000600082015250565b6000614362601983612e70565b915061436d8261432c565b602082019050919050565b6000602082019050818103600083015261439181614355565b9050919050565b7f4552433732313a207472616e7366657220746f206e6f6e20455243373231526560008201527f63656976657220696d706c656d656e7465720000000000000000000000000000602082015250565b60006143f4603283612e70565b91506143ff82614398565b604082019050919050565b60006020820190508181036000830152614423816143e7565b9050919050565b7f4e487b7100000000000000000000000000000000000000000000000000000000600052601260045260246000fd5b600061446482612db8565b915061446f83612db8565b925082820190508082111561448757614486613df9565b5b92915050565b600061449882612db8565b91506144a383612db8565b9250826144b3576144b261442a565b5b828204905092915050565b60006144c982612db8565b91506144d483612db8565b92508282026144e281612db8565b915082820484148315176144f9576144f8613df9565b5b5092915050565b6000608082019050818103600083015261451a8187612e81565b9050818103602083015261452e8186612e81565b905061453d604083018561307d565b61454a606083018461307d565b95945050505050565b6000604082019050818103600083015261456d8185612e81565b905061457c602083018461307d565b9392505050565b6000606082019050818103600083015261459d8186612e81565b90506145ac602083018561307d565b6145b9604083018461307d565b949350505050565b600081519050919050565b600082825260208201905092915050565b60006145e8826145c1565b6145f281856145cc565b9350614602818560208601612d44565b61460b81612d6e565b840191505092915050565b600060808201905061462b6000830187612f67565b6146386020830186612f67565b614645604083018561307d565b818103606083015261465781846145dd565b905095945050505050565b60008151905061467181612c99565b92915050565b60006020828403121561468d5761468c612c63565b5b600061469b84828501614662565b91505092915050565b7f4552433732313a206d696e7420746f20746865207a65726f2061646472657373600082015250565b60006146da602083612e70565b91506146e5826146a4565b602082019050919050565b60006020820190508181036000830152614709816146cd565b9050919050565b7f4552433732313a20746f6b656e20616c7265616479206d696e74656400000000600082015250565b6000614746601c83612e70565b915061475182614710565b602082019050919050565b6000602082019050818103600083015261477581614739565b905091905056fe506c617965722061747461636b656420626f73732e204e657720626f73732068703a2025734142434445464748494a4b4c4d4e4f505152535455565758595a6162636465666768696a6b6c6d6e6f707172737475767778797a303132333435363738392b2f426f73732061747461636b656420706c617965722e204e657720706c617965722068703a2025730a4d696e746564204e465420772f20746f6b656e496420257320616e6420636861726163746572496e6465782025730a506c6179657220772f206368617261637465722025732061626f757420746f2061747461636b2e2048617320257320485020616e64202573204144a26469706673582212206bfa1ef1b36c88eb4d561ae2cda7fbb8861c2a23bca5746d3857479dde88a8e164736f6c63430008110033446f6e6520696e697469616c697a65696e6720257320772f2048502025732c20696d67202573446f6e6520696e697469616c697a65696e6720626f737320772f2048502025732c20696d67202573",
  "linkReferences": {},
  "deployedLinkReferences": {}
}